{
  "_format": "hh-sol-artifact-1",
  "contractName": "ReturnToMonke",
  "sourceName": "contracts/ReturnToMonke.sol",
  "abi": [
    {
      "inputs": [],
      "stateMutability": "payable",
      "type": "constructor"
    },
    {
      "anonymous": false,
      "inputs": [
        {
          "indexed": true,
          "internalType": "address",
          "name": "from",
          "type": "address"
        },
        {
          "indexed": false,
          "internalType": "uint256",
          "name": "timestamp",
          "type": "uint256"
        },
        {
          "indexed": false,
          "internalType": "string",
          "name": "message",
          "type": "string"
        }
      ],
      "name": "NewWoop",
      "type": "event"
    },
    {
      "inputs": [
        {
          "internalType": "address",
          "name": "",
          "type": "address"
        }
      ],
      "name": "Monkes",
      "outputs": [
        {
          "internalType": "address",
          "name": "monke",
          "type": "address"
        },
        {
          "internalType": "uint256",
          "name": "bananasEaten",
          "type": "uint256"
        },
        {
          "internalType": "enum ReturnToMonke.MonkeLevel",
          "name": "lvl",
          "type": "uint8"
        },
        {
          "internalType": "bool",
          "name": "isMonke",
          "type": "bool"
        }
      ],
      "stateMutability": "view",
      "type": "function"
    },
    {
      "inputs": [
        {
          "internalType": "string",
          "name": "_message",
          "type": "string"
        }
      ],
      "name": "eatBanana",
      "outputs": [],
      "stateMutability": "nonpayable",
      "type": "function"
    },
    {
      "inputs": [],
      "name": "getAllWoops",
      "outputs": [
        {
          "components": [
            {
              "internalType": "address",
              "name": "wooper",
              "type": "address"
            },
            {
              "internalType": "string",
              "name": "woop",
              "type": "string"
            },
            {
              "internalType": "uint256",
              "name": "timestamp",
              "type": "uint256"
            }
          ],
          "internalType": "struct ReturnToMonke.Woop[]",
          "name": "",
          "type": "tuple[]"
        }
      ],
      "stateMutability": "view",
      "type": "function"
    },
    {
      "inputs": [],
      "name": "getTotalBananasEaten",
      "outputs": [
        {
          "internalType": "uint256",
          "name": "",
          "type": "uint256"
        }
      ],
      "stateMutability": "view",
      "type": "function"
    },
    {
      "inputs": [],
      "name": "getTotalMonkes",
      "outputs": [
        {
          "internalType": "uint256",
          "name": "",
          "type": "uint256"
        }
      ],
      "stateMutability": "view",
      "type": "function"
    },
    {
      "inputs": [
        {
          "internalType": "address",
          "name": "monkeAddress",
          "type": "address"
        }
      ],
      "name": "isMonke",
      "outputs": [
        {
          "internalType": "bool",
          "name": "isIndeed",
          "type": "bool"
        }
      ],
      "stateMutability": "view",
      "type": "function"
    },
    {
      "inputs": [
        {
          "internalType": "address",
          "name": "",
          "type": "address"
        }
      ],
      "name": "lastBananaEaten",
      "outputs": [
        {
          "internalType": "uint256",
          "name": "",
          "type": "uint256"
        }
      ],
      "stateMutability": "view",
      "type": "function"
    }
  ],
  "bytecode": "0x60806040526200004f6040518060400160405280601981526020017f57652068617665206265656e20636f6e737472756374656421000000000000008152506200005560201b62000e091760201c565b620001e9565b620000f5816040516024016200006c919062000162565b6040516020818303038152906040527f41304fac000000000000000000000000000000000000000000000000000000007bffffffffffffffffffffffffffffffffffffffffffffffffffffffff19166020820180517bffffffffffffffffffffffffffffffffffffffffffffffffffffffff8381831617835250505050620000f860201b60201c565b50565b60008151905060006a636f6e736f6c652e6c6f679050602083016000808483855afa5050505050565b60006200012e8262000186565b6200013a818562000191565b93506200014c818560208601620001a2565b6200015781620001d8565b840191505092915050565b600060208201905081810360008301526200017e818462000121565b905092915050565b600081519050919050565b600082825260208201905092915050565b60005b83811015620001c2578082015181840152602081019050620001a5565b83811115620001d2576000848401525b50505050565b6000601f19601f8301169050919050565b611b2080620001f96000396000f3fe608060405234801561001057600080fd5b506004361061007d5760003560e01c80633aec65a51161005b5780633aec65a5146100ee578063719a21321461010a5780638290ea5f14610128578063d2e065e11461015b5761007d565b80631f3230141461008257806321787190146100a057806333b78756146100be575b600080fd5b61008a61018b565b60405161009791906116ae565b60405180910390f35b6100a86101b9565b6040516100b591906116ae565b60405180910390f35b6100d860048036038101906100d391906111c2565b6101e7565b6040516100e591906116ae565b60405180910390f35b610108600480360381019061010391906111eb565b6101ff565b005b610112610bf5565b60405161011f9190611551565b60405180910390f35b610142600480360381019061013d91906111c2565b610d46565b604051610152949392919061150c565b60405180910390f35b610175600480360381019061017091906111c2565b610db0565b6040516101829190611573565b60405180910390f35b60006101b1604051806060016040528060218152602001611a5b60219139600054610ea2565b600154905090565b60006101df604051806060016040528060248152602001611ac760249139600154610ea2565b600154905090565b60046020528060005260406000206000915090505481565b426096600460003373ffffffffffffffffffffffffffffffffffffffff1673ffffffffffffffffffffffffffffffffffffffff1681526020019081526020016000205461024c91906117cb565b1061028c576040517f08c379a00000000000000000000000000000000000000000000000000000000081526004016102839061168e565b60405180910390fd5b42600460003373ffffffffffffffffffffffffffffffffffffffff1673ffffffffffffffffffffffffffffffffffffffff168152602001908152602001600020819055506001600560003373ffffffffffffffffffffffffffffffffffffffff1673ffffffffffffffffffffffffffffffffffffffff168152602001908152602001600020600101600082825461032391906117cb565b92505081905550600160008082825461033c91906117cb565b925050819055506103c56040518060400160405280601981526020017f2573206861732065617474656e2025642062616e616e6173210000000000000081525033600560003373ffffffffffffffffffffffffffffffffffffffff1673ffffffffffffffffffffffffffffffffffffffff16815260200190815260200160002060010154610f3e565b600360405180606001604052803373ffffffffffffffffffffffffffffffffffffffff16815260200183815260200142815250908060018154018082558091505060019003906000526020600020906003020160009091909190915060008201518160000160006101000a81548173ffffffffffffffffffffffffffffffffffffffff021916908373ffffffffffffffffffffffffffffffffffffffff16021790555060208201518160010190805190602001906104849291906110a2565b506040820151816002015550506000606460025442446104a491906117cb565b6104ae91906117cb565b6104b89190611902565b90506104f96040518060400160405280601681526020017f52616e646f6d20232067656e6572617465643a2025730000000000000000000081525082610ea2565b806002819055506032811015610606576000655af3107a4000905047811115610557576040517f08c379a000000000000000000000000000000000000000000000000000000000815260040161054e9061164e565b60405180910390fd5b60003373ffffffffffffffffffffffffffffffffffffffff168260405161057d906114f7565b60006040518083038185875af1925050503d80600081146105ba576040519150601f19603f3d011682016040523d82523d6000602084013e6105bf565b606091505b5050905080610603576040517f08c379a00000000000000000000000000000000000000000000000000000000081526004016105fa9061166e565b60405180910390fd5b50505b3373ffffffffffffffffffffffffffffffffffffffff167f9cb630dadf11e53081dd9e11ca034f8f67ba51ffd3db5288e5782823a3d46aae428460405161064e9291906116c9565b60405180910390a2600a600560003373ffffffffffffffffffffffffffffffffffffffff1673ffffffffffffffffffffffffffffffffffffffff168152602001908152602001600020600101541415610775576106e06040518060400160405280601c81526020017f257320686173206265636f6d65207468652047494741204b4f4e47210000000081525033610fdd565b60058060003373ffffffffffffffffffffffffffffffffffffffff1673ffffffffffffffffffffffffffffffffffffffff16815260200190815260200160002060020160006101000a81548160ff0219169083600581111561076b577f4e487b7100000000000000000000000000000000000000000000000000000000600052602160045260246000fd5b0217905550610bf1565b6008600560003373ffffffffffffffffffffffffffffffffffffffff1673ffffffffffffffffffffffffffffffffffffffff168152602001908152602001600020600101541415610895576107ff6040518060400160405280601c81526020017f257320686173206265636f6d6520746865204b494e47204b4f4e47210000000081525033610fdd565b6004600560003373ffffffffffffffffffffffffffffffffffffffff1673ffffffffffffffffffffffffffffffffffffffff16815260200190815260200160002060020160006101000a81548160ff0219169083600581111561088b577f4e487b7100000000000000000000000000000000000000000000000000000000600052602160045260246000fd5b0217905550610bf0565b6006600560003373ffffffffffffffffffffffffffffffffffffffff1673ffffffffffffffffffffffffffffffffffffffff1681526020019081526020016000206001015414156109b55761091f6040518060400160405280601a81526020017f25732065766f6c76656420696e746f206120476f72696c6c612100000000000081525033610fdd565b6003600560003373ffffffffffffffffffffffffffffffffffffffff1673ffffffffffffffffffffffffffffffffffffffff16815260200190815260200160002060020160006101000a81548160ff021916908360058111156109ab577f4e487b7100000000000000000000000000000000000000000000000000000000600052602160045260246000fd5b0217905550610bef565b6004600560003373ffffffffffffffffffffffffffffffffffffffff1673ffffffffffffffffffffffffffffffffffffffff168152602001908152602001600020600101541415610ad557610a3f6040518060400160405280601d81526020017f25732065766f6c76656420696e746f20616e204f72616e677574616e2100000081525033610fdd565b6002600560003373ffffffffffffffffffffffffffffffffffffffff1673ffffffffffffffffffffffffffffffffffffffff16815260200190815260200160002060020160006101000a81548160ff02191690836005811115610acb577f4e487b7100000000000000000000000000000000000000000000000000000000600052602160045260246000fd5b0217905550610bee565b6001600560003373ffffffffffffffffffffffffffffffffffffffff1673ffffffffffffffffffffffffffffffffffffffff168152602001908152602001600020600101541415610bed57610b426040518060800160405280604b8152602001611a7c604b913933610fdd565b6001600560003373ffffffffffffffffffffffffffffffffffffffff1673ffffffffffffffffffffffffffffffffffffffff16815260200190815260200160002060020160006101000a81548160ff02191690836005811115610bce577f4e487b7100000000000000000000000000000000000000000000000000000000600052602160045260246000fd5b02179055506001806000828254610be591906117cb565b925050819055505b5b5b5b5b5050565b60606003805480602002602001604051908101604052809291908181526020016000905b82821015610d3d57838290600052602060002090600302016040518060600160405290816000820160009054906101000a900473ffffffffffffffffffffffffffffffffffffffff1673ffffffffffffffffffffffffffffffffffffffff1673ffffffffffffffffffffffffffffffffffffffff168152602001600182018054610ca2906118d0565b80601f0160208091040260200160405190810160405280929190818152602001828054610cce906118d0565b8015610d1b5780601f10610cf057610100808354040283529160200191610d1b565b820191906000526020600020905b815481529060010190602001808311610cfe57829003601f168201915b5050505050815260200160028201548152505081526020019060010190610c19565b50505050905090565b60056020528060005260406000206000915090508060000160009054906101000a900473ffffffffffffffffffffffffffffffffffffffff16908060010154908060020160009054906101000a900460ff16908060020160019054906101000a900460ff16905084565b6000600560008373ffffffffffffffffffffffffffffffffffffffff1673ffffffffffffffffffffffffffffffffffffffff16815260200190815260200160002060020160019054906101000a900460ff169050919050565b610e9f81604051602401610e1d919061158e565b6040516020818303038152906040527f41304fac000000000000000000000000000000000000000000000000000000007bffffffffffffffffffffffffffffffffffffffffffffffffffffffff19166020820180517bffffffffffffffffffffffffffffffffffffffffffffffffffffffff8381831617835250505050611079565b50565b610f3a8282604051602401610eb892919061161e565b6040516020818303038152906040527f9710a9d0000000000000000000000000000000000000000000000000000000007bffffffffffffffffffffffffffffffffffffffffffffffffffffffff19166020820180517bffffffffffffffffffffffffffffffffffffffffffffffffffffffff8381831617835250505050611079565b5050565b610fd8838383604051602401610f56939291906115e0565b6040516020818303038152906040527f07c81217000000000000000000000000000000000000000000000000000000007bffffffffffffffffffffffffffffffffffffffffffffffffffffffff19166020820180517bffffffffffffffffffffffffffffffffffffffffffffffffffffffff8381831617835250505050611079565b505050565b6110758282604051602401610ff39291906115b0565b6040516020818303038152906040527f319af333000000000000000000000000000000000000000000000000000000007bffffffffffffffffffffffffffffffffffffffffffffffffffffffff19166020820180517bffffffffffffffffffffffffffffffffffffffffffffffffffffffff8381831617835250505050611079565b5050565b60008151905060006a636f6e736f6c652e6c6f679050602083016000808483855afa5050505050565b8280546110ae906118d0565b90600052602060002090601f0160209004810192826110d05760008555611117565b82601f106110e957805160ff1916838001178555611117565b82800160010185558215611117579182015b828111156111165782518255916020019190600101906110fb565b5b5090506111249190611128565b5090565b5b80821115611141576000816000905550600101611129565b5090565b60006111586111538461172a565b6116f9565b90508281526020810184848401111561117057600080fd5b61117b84828561188e565b509392505050565b60008135905061119281611a43565b92915050565b600082601f8301126111a957600080fd5b81356111b9848260208601611145565b91505092915050565b6000602082840312156111d457600080fd5b60006111e284828501611183565b91505092915050565b6000602082840312156111fd57600080fd5b600082013567ffffffffffffffff81111561121757600080fd5b61122384828501611198565b91505092915050565b60006112388383611489565b905092915050565b61124981611821565b82525050565b61125881611821565b82525050565b60006112698261176a565b611273818561178d565b9350836020820285016112858561175a565b8060005b858110156112c157848403895281516112a2858261122c565b94506112ad83611780565b925060208a01995050600181019050611289565b50829750879550505050505092915050565b6112dc81611833565b82525050565b6112eb8161187c565b82525050565b60006112fc82611775565b61130681856117a9565b935061131681856020860161189d565b61131f81611a1e565b840191505092915050565b600061133582611775565b61133f81856117ba565b935061134f81856020860161189d565b61135881611a1e565b840191505092915050565b60006113706034836117ba565b91507f547279696e6720746f207769746864726177206d6f7265206d6f6e657920746860008301527f616e2074686520636f6e7472616374206861732e0000000000000000000000006020830152604082019050919050565b60006113d66026836117ba565b91507f4661696c656420746f207769746864726177206d6f6e65792066726f6d20636f60008301527f6e747261637400000000000000000000000000000000000000000000000000006020830152604082019050919050565b600061143c60008361179e565b9150600082019050919050565b60006114566008836117ba565b91507f576169742031356d0000000000000000000000000000000000000000000000006000830152602082019050919050565b60006060830160008301516114a16000860182611240565b50602083015184820360208601526114b982826112f1565b91505060408301516114ce60408601826114d9565b508091505092915050565b6114e281611872565b82525050565b6114f181611872565b82525050565b60006115028261142f565b9150819050919050565b6000608082019050611521600083018761124f565b61152e60208301866114e8565b61153b60408301856112e2565b61154860608301846112d3565b95945050505050565b6000602082019050818103600083015261156b818461125e565b905092915050565b600060208201905061158860008301846112d3565b92915050565b600060208201905081810360008301526115a8818461132a565b905092915050565b600060408201905081810360008301526115ca818561132a565b90506115d9602083018461124f565b9392505050565b600060608201905081810360008301526115fa818661132a565b9050611609602083018561124f565b61161660408301846114e8565b949350505050565b60006040820190508181036000830152611638818561132a565b905061164760208301846114e8565b9392505050565b6000602082019050818103600083015261166781611363565b9050919050565b60006020820190508181036000830152611687816113c9565b9050919050565b600060208201905081810360008301526116a781611449565b9050919050565b60006020820190506116c360008301846114e8565b92915050565b60006040820190506116de60008301856114e8565b81810360208301526116f0818461132a565b90509392505050565b6000604051905081810181811067ffffffffffffffff821117156117205761171f6119ef565b5b8060405250919050565b600067ffffffffffffffff821115611745576117446119ef565b5b601f19601f8301169050602081019050919050565b6000819050602082019050919050565b600081519050919050565b600081519050919050565b6000602082019050919050565b600082825260208201905092915050565b600081905092915050565b600082825260208201905092915050565b600082825260208201905092915050565b60006117d682611872565b91506117e183611872565b9250827fffffffffffffffffffffffffffffffffffffffffffffffffffffffffffffffff0382111561181657611815611933565b5b828201905092915050565b600061182c82611852565b9050919050565b60008115159050919050565b600081905061184d82611a2f565b919050565b600073ffffffffffffffffffffffffffffffffffffffff82169050919050565b6000819050919050565b60006118878261183f565b9050919050565b82818337600083830152505050565b60005b838110156118bb5780820151818401526020810190506118a0565b838111156118ca576000848401525b50505050565b600060028204905060018216806118e857607f821691505b602082108114156118fc576118fb6119c0565b5b50919050565b600061190d82611872565b915061191883611872565b92508261192857611927611962565b5b828206905092915050565b7f4e487b7100000000000000000000000000000000000000000000000000000000600052601160045260246000fd5b7f4e487b7100000000000000000000000000000000000000000000000000000000600052601260045260246000fd5b7f4e487b7100000000000000000000000000000000000000000000000000000000600052602160045260246000fd5b7f4e487b7100000000000000000000000000000000000000000000000000000000600052602260045260246000fd5b7f4e487b7100000000000000000000000000000000000000000000000000000000600052604160045260246000fd5b6000601f19601f8301169050919050565b60068110611a4057611a3f611991565b5b50565b611a4c81611821565b8114611a5757600080fd5b5056fe4d6f6e6b6573206861766520636f6e73756d65642025642062616e616e617321212573206861732072656a65637465642068756d616e69747920616e64206265636f6d652061206368696d702120546865206d6f6e6b652061726d792067726f7773207374726f6e67657221546865206d6f6e6b652061726d79206973202564206d6f6e6b6573207374726f6e672121a26469706673582212207c20e4cacb336de92ea4f1405d462dc7e8a4fe1896a92c7684dd229018ceba5e64736f6c63430008000033",
  "linkReferences": {},
  "deployedLinkReferences": {}
}